:020000040800F2
:10000000B0090020C10100084F170008A512000820
:1000100049170008A3070008A124000800000000F9
:10002000000000000000000000000000111D00089A
:10003000FF0F000800000000AD180008D9010008FB
:10004000DB010008DB010008DB010008DB01000820
:10005000DB010008DB010008DB010008DB01000810
:10006000DB010008DB010008DB010008DB01000800
:10007000DB010008DB010008DB010008DB010008F0
:10008000DB010008DB010008DB010008E5070008D0
:10009000A9070008DB010008DB010008DB010008FC
:1000A000DB010008DB010008DB010008DB010008C0
:1000B000DB010008051F0008DB010008DB01000868
:1000C000DB010008DB010008DB010008DB010008A0
:1000D000DB01000895210008D12100085922000801
:1000E000DB010008DB010008DB010008DB01000880
:1000F000DB010008DB010008DB010008DB01000870
:10010000DB010008DB010008DB010008DB0100085F
:10011000DB010008DB010008DB010008DB0100084F
:10012000DB010008DB010008DB010008DB0100083F
:10013000DB010008DB010008DB01000831080008D2
:1001400001080008DB010008DB010008DB010008F2
:10015000DB010008DB010008DB010008DB0100080F
:10016000DB010008DB010008DB010008DB010008FF
:10017000DB010008DB010008DB010008DB010008EF
:10018000DB010008DB010008DB010008DB010008DF
:10019000DB010008DB010008DB010008DB010008CF
:1001A0000000000000000000DB010008DFF80CD0B8
:1001B00000F0A8FA004800478D300008B009002080
:1001C0000648804706480047FEE7FEE7FEE7FEE7F1
:1001D000FEE7FEE7FEE7FEE7FEE7FEE7511E00084A
:1001E000AD0100082DE9FE4F804681EA0300C00FF3
:1001F0000C46009021F0004123F00045B8EB0200CE
:10020000A94105D24046214690461C460B4602466F
:1002100023F00040104347D0270DC7F30A00C3F373
:100220000A510290401A019040286BDAC3F3130080
:1002300040F4801B0098924620B10023D2EB030AC1
:1002400063EB0B0B01985946C0F14002504600F099
:1002500054F906460D4650465946019A00F05CF99D
:1002600010EB08006141002487EA115284EAE77329
:100270001A4340D0009A62B3019A012A4FEA07520A
:1002800015DC001B61EB02014FF0004202EA07524D
:10029000CDE90042001C41F5801132462B4600F0AA
:1002A0005CF903B0BDE8F08F40462146F9E7001B3A
:1002B00061EB0201001C41F5801300185B4120181E
:1002C000A2F5001747EB030140EAD570B6196D415E
:1002D00011E06D084FEA360645EAC0754FEA07524D
:1002E000001B61EB0201001C41F5801149084FEA37
:1002F00030000019514132462B4603B0BDE8F04FA3
:1003000000F01CB90098012240000023D0EB02024B
:1003100063EBE073009821464FEAE074B8EB00000D
:1003200061EB0401E9E783F000435BE781F0004102
:1003300058E72DE9FE4F81EA030404F0004421F060
:10034000004100944FF0000B23F0004350EA0104F9
:100350005ED052EA03045BD0C3F30A54C1F30A55DA
:100360002C44A4F2F3340194A0FB0254C1F3130112
:1003700041F48011C3F3130343F4801301FB0244DF
:1003800000FB034E840A970A44EA815447EA8357E4
:10039000A4FB076802958D0A05FB07854FEA932C9D
:1003A00004FB0C542705029D4FEA065847EA16370E
:1003B000B5EB08056EEB070C870E920E47EA811726
:1003C00042EA8312A7FB0201B6EB0B0164EB0004C7
:1003D0002B0D43EA0C335E1844EB1C50DA465146B1
:1003E000E7FB0201C5F313044FEA0B3343EA14534E
:1003F0004FEA0432019C43EA0603A4F10C04029480
:10040000009CCDE900B400F0A8F803B0BDE8F08F7F
:1004100000200146F9E700F0004230F000400AD029
:10042000C10D01F56071C0F3160042EA0151C20826
:1004300040071143704700200146704730B5041E45
:1004400071F1000404DB4FF00044404264EB010111
:10045000141E73F1000405DB1C464FF000435242AA
:1004600063EB0403994208BF904230BD30B50B46A0
:10047000014600202022012409E021FA02F59D42D4
:1004800005D303FA02F5491B04FA02F52844151EA8
:10049000A2F10102F1DC30BD2DE9F05F054600203C
:1004A00092469B4688460646814640241BE02846E5
:1004B00041464746224600F037F953465A46C01A8D
:1004C000914110D311461846224600F016F82D1A15
:1004D00067EB01084F4622460120002100F00DF88D
:1004E00017EB00094E41201EA4F10104DFDC484651
:1004F00031462A464346BDE8F09F202A04DB203AD5
:1005000000FA02F1002070479140C2F1200320FA66
:1005100003F3194390407047202A06DBCB17203A9B
:1005200041FA02F043EAE07306E041FA02F3D040F8
:10053000C2F12002914008431946704710B5141EBD
:1005400073F1000408DA401C41F1000192185B418C
:100550001A4301D120F0010010BD2DE9F04D924663
:100560009B4611B1B1FA81F202E0B0FA80F220327A
:100570009046FFF7C2FF04460F4640EA0A0041EAF0
:100580000B0153465A46084313D0114653EA010063
:1005900019D0C8F14002504600F0C6F805460E4694
:1005A000504659464246FFF7A8FF084305D00120B0
:1005B00004E020463946BDE8F08D0020054346EAB8
:1005C000E0762C4337430A986305E40AA0EB080061
:1005D0000022FD0A44EA47540A3002D500200146B1
:1005E000E9E7010510196941DDE90845001969418C
:1005F000BDE8F04DA2E72DE9F04D81EA030404F0D7
:10060000004B21F0004514464FF0000A23F0004152
:1006100050EA050220D054EA01021DD0C5F30A5762
:100620000246C5F31303C1F31300C1F30A5640F4A5
:10063000801543F48013A7EB0608101BD64608F27A
:10064000FD3873EB050002D308F1010801E09218B0
:100650005B41B8F1000F03DA00200146BDE8F08DE0
:1006600000204FF48011064684460EE0171B73EB02
:10067000050705D3121B63EB050306434CEA010C87
:1006800049084FEA300092185B4150EA0107EDD16A
:1006900052EA030012D082EA040083EA050108430B
:1006A00005D0101BAB4106D20122002306E0002238
:1006B0004FF0004302E06FF0010253101AEB060006
:1006C0004CEB085110EB0A0041EB0B01BDE8F04D7B
:1006D000FFF734BFC1F30A52C1F3130140F2FF33F5
:1006E00041F480119A4202DA00200146704740F23C
:1006F00033439A42A2F2334202DC524200F014B871
:10070000FFF7FBBE064C074D06E0E06840F0010332
:1007100094E8070098471034AC42F6D3FFF74AFD3F
:1007200098300008B8300008202A04DB203A21FA6B
:1007300002F00021704721FA02F3D040C2F12002FA
:10074000914008431946704710B5B42002F036FCBA
:100750004FF4A06001F038F800F0C4FD00F0A4FDF3
:1007600000BF00F08FFE0028FBD0642000F01AFECE
:1007700001F08AF900F00FF800F024FB00F0AAFB6A
:100780004FF4E13001F03AFF01F028F801F094FB5A
:1007900001F0CCFB10BD10B54FF4E13001F0D8FEF4
:1007A00010BD00BFFEE7000000B585B002210B4878
:1007B00000F05CF978B10421084800F063F80849BA
:1007C000064800F043F86A460021044800F071FA38
:1007D000684600F009FC05B000BD00000064004060
:1007E0000800003210B50121044800F03FF918B1AB
:1007F0000121024800F046F810BD000000640040EE
:1008000000B585B00221094800F030F958B1022145
:10081000064800F037F86A460021044800F049FA1B
:10082000684600F0E1FB05B000BD00000068004034
:1008300010B50121044800F019F918B1012102484E
:1008400000F020F810BD00000068004000220C4BB2
:10085000994202D10023836111E0C1F3130201F038
:1008600000730BB1C2600AE001F080630BB102615A
:1008700005E001F000630BB1826000E04260704768
:100880007000F030B1F5007F3AD00FDC202928D07D
:1008900006DC01291CD004291DD0082940D11DE007
:1008A000402921D0B1F5807F3AD126E0B1F5004F43
:1008B00031D006DCB1F5806F25D0B1F5006F2FD1B6
:1008C00024E0B1F5803F12D0B1F5003F28D111E00E
:1008D000154A826025E00822C26022E01022C26030
:1008E0001FE0082202611CE01022026119E00822C8
:1008F000426016E01022426013E00422426010E0E1
:10090000042242600DE0042242600AE0002282617B
:100910000422426005E0002282610422426000E07D
:1009200000BF00BF704700000101010010B5044680
:100930000B48844209D10121480600F0D9FF00216B
:100940004FF0007000F0D4FF08E00121880600F0AD
:10095000CFFF00214FF0806000F0CAFF10BD000003
:100960000064004010B50021837A012202FA03F1ED
:100970003D4A126842F001023B4B1A603A4A1C326F
:1009800012688A43384B1C331A60027BCAB9364A54
:100990000C3212688A43344B0C331A604288C38885
:1009A00042EA0343304A4032847A42F834300288C3
:1009B000838842EA03432C4A4032847A02EBC40221
:1009C0005360027B012A19D1274A0C3212680A436C
:1009D000254B0C331A604288038842EA0343224ABB
:1009E0004032847A42F83430C288838842EA034332
:1009F0001D4A4032847A02EBC4025360C27A3AB98B
:100A0000194A121D12688A43174B1B1D1A6006E013
:100A1000154A121D12680A43134B1B1D1A600289E6
:100A200032B9114A143212688A430F4B14331A60D8
:100A30000289012A06D10C4A143212680A430A4B71
:100A400014331A60427B012A06D1074A1C3212680D
:100A50000A43054B1C331A60034A126822F0010254
:100A6000014B1A6010BD00000066004070B50446DE
:100A70000D46002660692840002871D0B5F5807FBA
:100A80005CD010DC082D35D006DC012D20D0022DE5
:100A900024D0042D72D127E0102D31D0202D35D057
:100AA000402D6BD138E0B5F5004F60D009DCB5F5CD
:100AB000007F49D0B5F5806F4CD0B5F5006F5DD1A2
:100AC0004FE0B5F5803F2DD0B5F5003F56D12FE072
:100AD000A0682D4900F089FA064651E0E06803213C
:100AE00000F083FA06464BE0E068082100F07DFA4A
:100AF000064645E0E068102100F077FA06463FE040
:100B00002069032100F071FA064639E020690821C6
:100B100000F06BFA064633E02069102100F065FA18
:100B200006462DE06068082100F05FFA064627E0DF
:100B30006068102100F059FA064621E0A069012101
:100B400000F053FA06461BE0A069022100F04DFABE
:100B5000064615E0A069042100F047FA06460FE0BA
:100B60000FE0A069702100F040FA064608E06068D6
:100B7000042100F03AFA064602E0FFE7002600BF33
:100B800000E00026304670BD010101001AB1436942
:100B90000B43436102E043698B434361704730B5C7
:100BA000024600200023146824F002041460146834
:100BB00044F00104146000E05B1C546804F001047C
:100BC0001CB94FF6FF74A342F6D1546804F0010437
:100BD0000CB900206CE08C79012C04D1146844F02D
:100BE0008004146003E0146824F080041460CC795D
:100BF000012C04D1146844F04004146003E014682C
:100C000024F0400414600C7A012C04D1146844F0E0
:100C10002004146003E0146824F0200414604C7A6B
:100C2000012C04D1146844F01004146003E014682B
:100C300024F0100414608C7A012C04D1146844F060
:100C40000804146003E0146824F008041460CC7AEB
:100C5000012C04D1146844F00404146003E0146807
:100C600024F0040414608C78A407CD7844EA056469
:100C70000D7944EA05444D7944EA05540D886D1E0A
:100C80002C43D461146824F001041460002300E0B4
:100C90005B1C546804F001041CB14FF6FF74A342BE
:100CA000F6D1546804F001040CB1002000E00120EA
:100CB00030BD10B500F5D87303EB01131B6803F0CA
:100CC00004031372137A53B900F5D87303EB0113BD
:100CD0001B6840F2FF7404EA5353136009E000F507
:100CE000D87303EB01131B686FF0604404EAD3036D
:100CF000536000F5D87303EB01131B6803F0020384
:100D0000537200F5D87303EB01135B6803F00F0314
:100D1000937200F5D87303EB01135B681B0AD3745D
:100D200000F5D87303EB01139B68D37200F5D873F9
:100D300003EB01139B681C0A147300F5D87303EBD3
:100D400001139B681C0C547300F5D87303EB01135B
:100D50009B681B0E937300F5D87303EB0113DB68DC
:100D6000D37300F5D87303EB0113DB681C0A14740A
:100D700000F5D87303EB0113DB681C0C547400F509
:100D8000D87303EB0113DB681B0E937421B9C3689E
:100D900043F02003C36003E0036943F020030361D1
:100DA00010BD00218171C171017241728172C172E5
:100DB0008170C17003210171022141710121018003
:100DC0007047000000B58BB00121082000F070FDD5
:100DD0000121480600F07CFD092201213B4800F07A
:100DE00033FA09220021394800F02EFA032002903C
:100DF00002208DF80C0002A9344800F0DDF914201F
:100E00008DF8040002208DF8050001208DF8060001
:100E10008DF8070001A800F09BFC13208DF804005A
:100E200001208DF805008DF806008DF8070001A857
:100E300000F08EFC2648FFF779FD08A8FFF7B1FF08
:100E400000208DF826008DF827008DF828008DF8F9
:100E500029008DF82A0001208DF82B0000208DF844
:100E600022008DF8230008208DF8240004208DF83E
:100E700025000320ADF8200008A91548FFF78FFED4
:100E800000208DF81A008DF81B0001208DF81C0041
:100E90000020ADF81000ADF81200ADF81400ADF868
:100EA0001600ADF8180001208DF81D0004A8FFF70A
:100EB00059FD012202210648FFF768FE0122114672
:100EC0000348FFF763FE0BB000BD0000000C0240BA
:100ED0000064004000B58BB00121022000F0E8FC66
:100EE0000121880600F0F4FC09220C213C4800F0A6
:100EF000ABF909220D213A4800F0A6F94FF4405011
:100F0000029002208DF80C0002A9354800F054F937
:100F100040208DF8040001208DF805008DF80600B2
:100F20008DF8070001A800F013FC3F208DF80400A5
:100F300000208DF8050001208DF806008DF80700CF
:100F400001A800F005FC2748FFF7F0FC08A8FFF710
:100F500028FF00208DF826008DF827008DF8280046
:100F60008DF829008DF82A0001208DF82B00002033
:100F70008DF822008DF8230008208DF8240004202D
:100F80008DF825000320ADF8200008A91548FFF7CB
:100F900006FE0E208DF81A0000208DF81B0001209F
:100FA0008DF81C000020ADF81000ADF81200ADF86F
:100FB0001400ADF81600ADF8180001208DF81D00E2
:100FC00004A8FFF7CFFC012202210648FFF7DEFD4F
:100FD000012211460348FFF7D9FD0BB000BD000008
:100FE000000402400068004070470246002002EA08
:100FF00001030BB1012000E00020704770477047EB
:101000007047000002480088401C01490880704772
:101010004200002010B500F06BFA10BD70470000D0
:1010200010B52DED028B2B48007848B980212A4855
:1010300000F02DF927480078401C2649087027E069
:1010400024480078012809D18103244800F01FF9C1
:1010500020480078401C1F49087019E01D4800789E
:10106000022809D180211C4800F013F919480078A2
:10107000401C184908700BE016480078032807D177
:101080004FF48041154800F004F900201149087020
:101090001348B0F90430B0F90220B0F9001011A0E3
:1010A00001F022FB15480068FFF7B5F941EC180B79
:1010B00053EC182B12A001F017FB1548B0F90430BF
:1010C000B0F90220B0F9001012A001F00DFBBDEC48
:1010D000028B10BD000000200010024000140240EE
:1010E000290000206178203D202564206179203D81
:1010F000202564207A203D2025640A003800002045
:1011000074656D707274757265203D2025660A00E5
:101110002F0000206778203D202564206779203D3E
:1011200020256420677A203D2025640A0A000000FB
:1011300010B5FFF763FF10BD10B51E4800780128F9
:1011400036D1FFF75FFF1B48B0F90400022804DB2B
:10115000002018498880FFF761FF1648B0F90600A3
:10116000052804DB00201349C880FFF7E1FF114880
:10117000B0F908000A2804DB00200E490881FFF7B7
:101180003FFF0C48B0F90A00142804DB002009498D
:101190004881FFF73FFF0748B0F90C00322804DB15
:1011A000002004498881FFF73BFF002001490870B7
:1011B00010BD00004C000020F0B50A4600210023BD
:1011C000002400BF3DE0012505FA01F3156805EA9A
:1011D00003049C4234D105684F000326BE40B5434A
:1011E000056015794E00B5400668354305601579F0
:1011F000012D02D01579022D16D185684F000326E6
:10120000BE40B543856055794E00B540866835438C
:101210008560456801268E40B543456045689679EE
:101220008E40B6B235434560C5684F000326BE40C8
:10123000B543C560D5794E00B540C6683543C56035
:10124000491C1029BFD3F0BDF0B5002300244D0781
:10125000ED0E02FA05F3CE1000F1200555F82650E8
:101260004E07F70E0F26BE40B543CF1000F1200603
:1012700046F82750CE1000F1200555F8265045EAD3
:101280000304CE1000F1200545F82640F0BD41834F
:1012900070470183704700000148007870470000E4
:1012A0004600002000BFFEE71CB50121402000F0F1
:1012B000FFFA4FF40050009001208DF80400002048
:1012C0008DF8060003208DF8050069460448FFF7F5
:1012D00073FF4FF400510248FFF7D9FF1CBD000017
:1012E000001802401CB50121102000F0E1FA802016
:1012F000009001208DF8040000208DF806000320E6
:101300008DF8050001208DF8070069461148FFF7A8
:1013100053FF0121202000F0CBFA4FF480400090D1
:1013200001208DF8040000208DF8060003208DF8C0
:10133000050001208DF8070069460748FFF73CFFCC
:101340004FF480410448FFF7A4FF80210148FFF7D4
:10135000A0FF1CBD001002400014024010480069AC
:10136000401C0F49086108468088401C00B28880F4
:101370000846C088401C00B2C88008460089401C4E
:1013800000B2088108464089401C00B248810846E6
:101390008089401C00B288810120087070470000DD
:1013A0004C00002070B50446002500202E4908603E
:1013B000486088602D4908604860886001202C4999
:1013C000087025462AE000F093F82848006829496B
:1013D000B1F90010084425490860084640682549CD
:1013E000B1F902100844214948601F4800682249A9
:1013F000B1F9001008441C490860084640681E49BD
:10140000B1F90210084418494860084680681A4932
:10141000B1F904100844144988606D1E002DD2DC17
:101420001248006890FBF4F000B2144908800F489D
:10143000406890FBF4F000B248800B48006890FBD5
:10144000F4F000B20E4908800748406890FBF4F0C1
:1014500000B248800448806890FBF4F000B28880B5
:1014600000200349087070BD84050020900500200D
:101470001C000020290000202F0000201D0000205B
:101480002300002010B500F073FB752000F030F948
:1014900070282BD180216B2000F040F9642001F0EE
:1014A000ABFD0721682000F039F9642001F0A4FDAC
:1014B00001216B2000F032F900216C2000F02EF9A0
:1014C00002211A2000F02AF90021192000F026F943
:1014D00018211B2000F022F910211C2000F01EF919
:1014E00000211D2000F01AF9012010BD0020FCE7AA
:1014F00010B540217448FFF7CAFEBB2000F0A6FBE0
:10150000002406E0FF2000F0A1FB70490855601C94
:10151000C4B20E2CF6DB6E48007800287ED16B48F2
:1015200040786A49097840EA01206A490988401AE6
:1015300000B2694908806548C0786449897840EA02
:10154000012064494988401A00B2634948805F48D5
:1015500040795E49097940EA012000B25E498880FD
:101560005A48407A5949097A40EA01205B4909887A
:10157000401A00B25A4908805448C07A5349897ABF
:1015800040EA012055494988401A00B25449488030
:101590004E48407B4D49097B40EA01204F498988EC
:1015A000401A00B24E4988804848C0794749897935
:1015B00040EA012000B24B4908800846B0F900001B
:1015C00000F2092064214843222190FBF1F048F603
:1015D000B801084400EE100AB8EEC00A424880ED97
:1015E000000A90ED000ADFED410A80EE201A80ED3E
:1015F000001A3B48B0F9000010F1040F07DD38482D
:10160000B0F90000042802DA002035490880344887
:10161000B0F9020010F1040F09DD00E016E03048D7
:10162000B0F90200042802DA00202D4948802C4835
:10163000B0F9040010F1040F41DD2948B0F90400AD
:1016400004283CDA00202649888038E020480078C9
:10165000A8B31E4840781D49097840EA012000B22D
:101660001D4908801948C0781849897840EA012046
:1016700000B219494880154840791449097940EA6F
:10168000012000B2144988801048407A0F49097A35
:1016900040EA012000B2124908800C48C07A0B4988
:1016A000897A40EA012000B20D4948800748407B12
:1016B0000649097B40EA012000B20949888040219F
:1016C0000148FFF7E6FD10BD00140240760500203A
:1016D0001C0000201D000020290000202300002005
:1016E0002F0000203C0000203800002000007A4439
:1016F00070B5044640210848FFF7C9FD44F080005A
:1017000000F0A4FAFF2000F0A1FA054640210248AB
:10171000FFF7BFFD284670BD0014024070B50546B6
:101720000C4640210748FFF7B2FD284600F08EFA2C
:101730000646204600F08AFA40210248FFF7A9FD3C
:10174000304670BD0014024000BFFEE7704770478E
:1017500070B5002100230F22C4781CB3174C2468F5
:1017600004F4E064C4F5E064C4F30721C1F10404A7
:10177000E3B20A4144789C40E1B2847814402143AA
:101780000C07210E0E4C05786155047804F01F05F6
:101790000124AC4005786D11AD0005F1E025C5F8D8
:1017A000004109E0047804F01F050124AC40054D18
:1017B0000678761145F8264070BD00000CED00E07B
:1017C00000E400E080E100E002490143024A1160C8
:1017D000704700000000FA050CED00E000B58BB08A
:1017E0000121802000F064F80121402000F070F811
:1017F0004FF41070099002208DF8280003208DF816
:10180000290009A92748FFF7D7FC09220621254806
:10181000FFF71AFD092211462248FFF715FD59204E
:10182000ADF818000020ADF81A0040F6C41007907B
:101830000020ADF8200006A91B4800F069FC7020CC
:10184000ADF804000120ADF806000020ADF8080056
:101850004FF47A7003900220ADF810000020ADF82C
:101860001200ADF814004FF48070ADF8160001A915
:101870000D4800F0A5FB01A90B4800F0E9FB082189
:10188000094800F0DBFB0821074800F033FC012188
:10189000054800F05DFB0121034800F06BFB0BB035
:1018A00000BD0000001C024000180040704700000E
:1018B00029B1064A12680243044B1A6004E0034A45
:1018C00012688243014B1A607047000030380240B2
:1018D00029B1064A12680243044B1A6004E0034A25
:1018E00012688243014B1A60704700004038024082
:1018F00029B1064A12680243044B1A6004E0034A05
:1019000012688243014B1A60704700002038024081
:1019100029B1064A12680243044B1A6004E0034AE4
:1019200012688243014B1A6070470000443802403D
:1019300029B1064A12680243044B1A6004E0034AC4
:1019400012688243014B1A6070470000243802403D
:10195000F0B5002100220024022500260223324F88
:101960003F6807F00C0121B1042905D0082937D1BF
:1019700005E02E4F076036E02D4F076033E02A4F19
:101980003F1F3F68C7F38056274F3F1F3F6807F050
:101990003F036EB1264FB7FBF3F7DFF88CC0ACF115
:1019A000040CDCF800C0CCF3881C07FB0CF40CE042
:1019B0001E4FB7FBF3F7DFF870C0ACF1040CDCF896
:1019C00000C0CCF3881C07FB0CF4174F3F1F3F6887
:1019D000C7F301477F1C7D00B4FBF5F7076002E009
:1019E000124F076000BF00BF0F4F3F6807F0F001C4
:1019F0000909104F7A5C0768D74047600A4F3F6873
:101A000007F4E051890A0B4F7A5C4768D74087603A
:101A1000054F3F6807F46041490B064F7A5C476801
:101A2000D740C760F0BD0000083802400024F40031
:101A3000001BB7000A00002010B504460F480088BC
:101A4000052805DB0E48007810B100200C4908700D
:101A50000B4801780078401C094A1070094844542A
:101A600010460078122807D1064800F013F800202D
:101A7000024908800249087010BD000042000020A1
:101A8000400000209C05002010B500F00BFD10BDAB
:101A90007047000010B5044604B910BD2078617885
:101AA00040EA0120C0F30A00304908806078C01085
:101AB000A17840EA4110C0F30A002C494880A07880
:101AC0008011E17840EA8100217940EA8120C0F369
:101AD0000A002649888020794010617940EAC110C7
:101AE000C0F30A002149C88060790011800808729B
:101AF0006079C0F301104872A079E17940EA0120D1
:101B000000B21A494881207A617A40EA012001B284
:101B100016488181A07AE17A40EA012001B2134897
:101B2000C181217B8174617BC174A07B0F49888254
:101B3000084600F0EFF80D48FFF7AAFFFFF7ACFBEF
:101B4000012804D002280DD003280CD103E0074857
:101B5000FFF79EFF07E005491431A1F10A00FFF7E6
:101B6000F5FD00E000BF00BF00BF96E76001002068
:101B700000B587B001212020FFF79AFE4020059094
:101B800001208DF8180003208DF8190005A92D48B3
:101B9000FFF712FB01210805FFF7BAFE4FF4607052
:101BA000059002208DF8180000208DF81A000320FF
:101BB0008DF8190001208DF81B0005A92148FFF7B9
:101BC000FBFA052207211F48FFF73EFB05220821EB
:101BD0001C48FFF739FB052209211A48FFF734FB9F
:101BE00001210805FFF7A4FE00214FF48010FFF744
:101BF0009FFE0020ADF800004FF48270ADF80200A7
:101C00000020ADF804000220ADF806000120ADF878
:101C100008004002ADF80A003820ADF80C000020A2
:101C2000ADF80E000720ADF810006946064800F038
:101C300051F80121044800F033F8FF2000F006F8C5
:101C400007B000BD001402400050014070B50546C9
:101C5000002405E0601CC4B2FA2C01DD002070BD38
:101C600002210E4800F028F80028F3D029460B483E
:101C700000F02EF8002405E0601CC4B2FA2C01DD4F
:101C80000020ECE70121054800F016F80028F3D009
:101C9000024800F01AF8C0B2E1E70000005001402D
:101CA00021B1028842F04002028004E002884FF62F
:101CB000BF731A40028070470246002013890B4010
:101CC0000BB1012000E00020704701468889704771
:101CD0008181704710B50022028802F441520B88BE
:101CE0004C8823438C882343CC8823430C8923438B
:101CF0004C8923438C892343CC8923431A43028094
:101D0000838B4FF2FF74234083830B8A038210BDC1
:101D100070470000417A012902D1074A11700AE098
:101D2000417A032902D1044A117004E0417A022960
:101D300001D1014A11707047460000200CB5002007
:101D4000019000903448006840F4803032490860C7
:101D500000BF3148006800F4003000900198401C3A
:101D60000190009818B90198B0F5A06FF1D12A48F8
:101D7000006800F4003010B10120009001E0002064
:101D800000900098012846D123484030006840F078
:101D900080502149403108602048006840F480406C
:101DA0001E4908601C48083000681B49083108605B
:101DB0000846006840F4004008600846006840F4A7
:101DC000A05008601648091F0860081F006840F00E
:101DD0008070091F086000BF0F48006800F00070A5
:101DE0000028F9D040F205600E4908600A48083022
:101DF000006820F0030008490831086008460068C0
:101E000040F00200086000BF03480830006800F09E
:101E10000C000828F8D10CBD0038024000700040CA
:101E20000C5A4007003C0240042808D14FF0E02142
:101E3000096941F004014FF0E022116107E04FF021
:101E4000E021096921F004014FF0E022116170479F
:101E500010B51548006840F4700013490860134835
:101E6000006840F001001149086000200F49083166
:101E700008600E4800680E4908400C4908600D488B
:101E8000091D0860081F006820F48020091F0860F1
:101E9000002006490C310860FFF750FF4FF000604A
:101EA00001498039086010BD88ED00E0003802402B
:101EB000FFFFF6FE103000241FB501210220FFF7BE
:101EC00007FD1D208DF8000001208DF80100002085
:101ED0008DF8020001208DF803006846FFF738FCFA
:101EE0005920ADF804000020ADF80600ADF80C0054
:101EF0004FF47A70029001A9014800F009F91FBD62
:101F00000004004010B50121074800F03FF848B137
:101F10000121054800F02BF80121034800F024F8C6
:101F2000FFF71CFA10BD00000004004010B50121AD
:101F3000064800F01FF801221146044800F037F867
:101F40000121024800F010F810BD0000000400401C
:101F500021B1028842F08002028004E002884FF63C
:101F60007F731A4002807047CA4302827047CA4397
:101F70000282704721B1028842F00102028004E02F
:101F800002884FF6FE731A400280704730B5024651
:101F9000002000230024158A05EA0103958905EA3B
:101FA000010413B10CB1012000E0002030BD1AB1D2
:101FB00083890B43838102E083898B43838170474C
:101FC00070B5002400220023058C4FF6FE763540C4
:101FD0000584028C8388048B4FF68F752C40B51EC8
:101FE0002C400D882C43751E2A408D892A434D882C
:101FF0002A43104DA84202D00F4DA84213D14FF6EC
:10200000F7752A40CD892A434FF6FB752A408D8803
:102010002A434FF6FF652B404FF6FF552B400D8AA4
:102020002B434D8A2B43838004838D684563028450
:1020300070BD000000000140000401400A4600217C
:10204000018B4FF6F773194011430183704700006D
:1020500070B5002400220023058C4FF6EF76354042
:102060000584028C8388048B48F6FF752C404FF65C
:10207000FF452C400D884FF6FF7606EA05252C43D8
:102080004FF6DF752A408D8906EA05152A434D88EB
:1020900006EA05152A43154DA84202D0144DA84260
:1020A0001DD14FF67F752A40CD894FF6FF7606EA9F
:1020B00005152A434FF6BF752A408D8806EA051597
:1020C0002A434FF6FF352B404FF2FF752B400D8A08
:1020D00006EA85052B434D8A06EA85052B43838056
:1020E00004838D688563028470BD00000000014098
:1020F000000401400A460021018B4FF2FF73194092
:102100004FF6FF7303EA022319430183704700006F
:1021100000220288184B98420ED0184B98420BD0E0
:10212000B0F1804F08D0164B984205D0154B98421D
:1021300002D0154B984204D14FF68F731A404B884A
:102140001A43124B984207D0114B984204D04FF6D5
:10215000FF431A400B891A4302804B68C3620B8805
:102160000385054B984202D0044B984201D18B7AEB
:102170000386012383827047000001400004014070
:102180000004004000080040000C00400010004027
:102190000014004010B50D48008800F0080010B190
:1021A0000A488088C4B240F22551084800F0BFF8C0
:1021B00050B140F22551054800F09EF80348808850
:1021C000C4B22046FFF738FC10BD000000100140EB
:1021D00010B51D48008800F0080018B11A48001D0D
:1021E0000088C4B240F22551174800F0A0F858B159
:1021F00040F22551144800F07FF81348001D008874
:10220000C4B2204600F06CF840F226610E4800F09F
:102210008EF8C0B10D4801780078401C0B4A107050
:102220000B48405C0849091D0880104600780949A0
:102230000978884207D104480C30008820F040001B
:1022400001490C31088010BD004400400700002007
:10225000760200200600002010B51D48008800F01E
:10226000080018B11A48001D0088C4B240F2255178
:10227000174800F05CF858B140F22551144800F0BE
:102280003BF81348001D0088C4B2204600F028F82F
:1022900040F226610E4800F04AF8C0B10D480178BE
:1022A0000078401C0B4A10700B48405C0849091D1F
:1022B00008801046007809490978884207D1044807
:1022C0000C30008820F0400001490C31088010BD1E
:1022D000004800400900002076040020080000208B
:1022E00010B50446FF2C03D180210248FEF7CFFF32
:1022F00010BD00000010024010B50022002340F67F
:102300006A14A14200D100BF0A1201249440A3B272
:10231000DC43048010BD21B1828942F400528281E5
:1023200004E082894DF6FF731A408281704770B5D0
:102330000246002400230025002040F66A16B14220
:1023400000D100BFC1F3421501F01F03012606FAB8
:1023500003F3012D02D19689334006E0022D02D10C
:10236000168A334001E0968A33400C12012606FAA1
:1023700004F41688344013B10CB1012000E00020B1
:1023800070BDF0B50346002400260025002040F66D
:102390006A17B94200D100BF1846C1F3421401F0D8
:1023A0001F06012707FA06F5012C01D10C3004E0C5
:1023B000022C01D1103000E014301AB107682F430D
:1023C000076002E00768AF430760F0BD2DE9FF47F3
:1023D00005460E460024A14600BFA046B08900B1C4
:1023E00000BF2C8A24F44054F08804432C82AC892A
:1023F00041F20C608443B0883189084371890843F5
:102400000443AC81AC8A24F44074B0890443AC82A8
:102410006846FFF79DFA2048854202D01F48854252
:1024200002D1DDF80C9001E0DDF80890A88900F4F5
:10243000004040B109EBC90000EB091031684900C8
:10244000B0FBF1F707E009EBC90000EB09103168B8
:102450008900B0FBF1F76420B7FBF0F0040120091C
:10246000642101FB1078A88900F4004040B13220BB
:1024700000EBC800B0FBF1F000F00700044308E0F7
:10248000322000EB08106421B0FBF1F000F00F00E7
:1024900004432C81BDE8FF87001001400014014077
:1024A00000BFFEE700B587B025208DF800000120B1
:1024B0008DF8010000208DF8020001208DF8030046
:1024C0006846FFF745F901210220FFF7F1F90121E4
:1024D0001020FFF71DFA072211461948FEF7B4FE37
:1024E0008020059002208DF818008DF8190000203A
:1024F0008DF81A0001208DF81B0005A91148FEF780
:102500005BFE114801900020ADF80800ADF80A000C
:10251000ADF80C00ADF810000420ADF80E0001A9D4
:102520000A48FFF753FF01210848FFF7F4FE012294
:1025300040F225510548FFF724FF07B000BD000019
:10254000000C024000040240A0860100001001407F
:1025500010B588B0044626208DF8040002208DF8BE
:10256000050000208DF8060001208DF8070001A865
:10257000FFF7EEF801210820FFF79AF9012148043E
:10258000FFF7A6F9072205211A48FEF75DFE07228C
:1025900006211848FEF758FE6020069002208DF8AC
:1025A0001C008DF81D0000208DF81E0001208DF804
:1025B0001F0006A90F48FEF7FFFD02940020ADF8AA
:1025C0000C00ADF80E00ADF81000ADF814000C20B2
:1025D000ADF8120002A90848FFF7F8FE01210648ED
:1025E000FFF799FE012240F225510348FFF7C9FE8B
:1025F00008B010BD000C02400044004010B588B087
:10260000044627208DF8040002208DF805000020E4
:102610008DF8060001208DF8070001A8FFF798F853
:1026200001210820FFF744F901218804FFF750F940
:10263000072208211B48FEF707FE07220921194837
:10264000FEF702FE4FF44070069002208DF81C0049
:102650008DF81D0000208DF81E0001208DF81F0050
:1026600006A91048FEF7A8FD02940020ADF80C0062
:10267000ADF80E00ADF81000ADF814000C20ADF868
:10268000120002A90848FFF7A1FE01210648FFF742
:1026900042FE012240F225510348FFF772FE08B0C6
:1026A00010BD0000000C02400048004010B5044678
:1026B0000A4801780078401C084A107008484454C1
:1026C0000848008800F0800030B9012240F22661FD
:1026D00004480C38FFF755FE10BD0000080000202C
:1026E000760400200C4800400FB4054B10B503A938
:1026F000044A029800F0CAF810BC5DF814FB000010
:102700007D3000084800002002E008C8121F08C100
:10271000002AFAD170477047002001E001C1121F62
:10272000002AFBD1704700002DE9FF5FDDE90220A0
:10273000010DDDF838B0024318D044F61050A1F274
:10274000FF3141430D140F98012820D0A5EB0B0059
:10275000401C5FEA000A4FF00004474EDFF81C916E
:10276000A046504616D5CAF1000728E00F9801246C
:1027700043A2012808D0002100980F9BC0E9002146
:10278000C0E90243BDE8FF9F6FEA0B01F4E7CBF11C
:102790000000DEE7074612E0F80707D0224633467E
:1027A00040464946FDF7C5FD8046894622463346E8
:1027B00010461946FDF7BDFD04460E467F10002F5A
:1027C000EAD1DDE90201BAF1000F42464B4602DAD6
:1027D000FDF7AFFD01E0FDF70EFF04460E460022B7
:1027E000284BFDF72BFE03D84FF0FF30014607E0E2
:1027F0000022254B20463146FDF7F4FCFDF76AFF29
:10280000102409E0002C0ADB0A220023FDF744FE15
:10281000019B30321A55641E50EA0102F2D1641C49
:10282000019AC4F1110314440F9A012A03D0012222
:1028300008430DD10AE0084304D000204FF0110BEB
:102840000F9080E7A3EB0B056D1E0DE05B4504DDEB
:102850004FF0000205F1010504E003DA4FF0000239
:10286000A5F10105002AECD000980F99C0E90231CA
:10287000C0E9004586E70000000024400000F03F6A
:10288000300000000000F0430000E03F2DE9FF4F62
:1028900095B09B468946064600250FE2252877D14C
:1028A00000242746F84A0121059400E0044316F865
:1028B000013F203B01FA03F01042F7D130782A287B
:1028C00011D06FF02F033078A0F13002092A16D80A
:1028D000059A44F0020402EB820203EB4202104428
:1028E000761C0590EFE759F8042B0592002A03DACD
:1028F000504244F40054059044F00204761C3078B1
:102900002E2816D116F8010F44F004042A280DD001
:102910006FF02F023078A0F13003092B09D807EBB4
:10292000870302EB4303C718761CF3E759F8047BCF
:10293000761C30786C280FD006DC4C2817D068281D
:102940000DD06A2814D104E0742810D07A280FD151
:102950000DE044F400140AE044F4801401E044F46F
:1029600040147278824202D104F58014761C761CE1
:10297000307866280BD013DC582877D009DC002883
:1029800075D04528F6D04628F4D047281AD19DE1C5
:1029900018E0632835D0642879D0652812D195E1F4
:1029A000702873D008DC6728F1D069286FD06E28B2
:1029B0000DD06F2806D1B5E073282CD0752875D0BE
:1029C000782874D05A46179990476D1C75E1C4F366
:1029D0000250022809D003280DD0D9F8001004288D
:1029E0000DD00D6009F1040967E1D9F80010EA176C
:1029F000C1E90052F6E7D9F800100D80F2E70D703A
:102A0000F0E719F8041B8DF8001000208DF8010084
:102A1000EA46012003E059F804AB4FF0FF306107AC
:102A20004FF0000102D40DE008F101018846B942DF
:102A30000FDA8045F8DB1AF808100029F4D108E015
:102A400008F1010188468142FADB1AF808100029D2
:102A5000F6D105985B46A0EB080721463846179A41
:102A600000F094FA284400EB080507E04DE029E166
:102A70000DE01AF8010B5A4617999047B8F1010872
:102A8000F7D25B4621463846179A13E142E00A2204
:102A90000092C4F302524FF0000A022A08D059F8FB
:102AA00004CB032A4FEAEC710AD00DE029E02AE0BA
:102AB00009F1070121F00702F2E802C1914609E09D
:102AC0000FFA8CFC4FEAEC71042A03D14FFA8CFC0C
:102AD0004FEAEC71002907DA0A460021DCF1000C0C
:102AE00061EB02012D2202E0220504D52B228DF894
:102AF0000420012203E0E20701D02022F7E79046FC
:102B000059E00A2102E010220DE010214FF0000AE6
:102B100000910BE010224FF0000A44F00404082753
:102B2000009203E008224FF0000A0092C4F3025220
:102B3000022A05D059F804CB0021032A08D009E065
:102B400009F1070121F00702F2E802C1914605E010
:102B50001FFA8CFC042A01D10CF0FF0C4FF0000886
:102B6000220728D5702806D0009B83F0100353EA73
:102B70000A0305D00EE040228DF80420012208E06F
:102B80005CEA010206D030228DF804208DF80500A1
:102B900002229046009B83F0080353EA0A030AD1FD
:102BA0005CEA010201D1620705D530228DF80420CC
:102BB0004FF001087F1E582804D034A003900EA8BF
:102BC00002900DE036A0F9E753466046009AFDF703
:102BD00063FC84460398825C0298401E0290027057
:102BE0005CEA0100F0D1029806A9081A00F1200A57
:102BF000600702D524F4803400E00127574502DD48
:102C0000A7EB0A0000E0002000EB0A010090059805
:102C10004144401A0590E00306D45B462146179ACA
:102C2000059800F0B3F90544002706E001A85A46CC
:102C3000C05D179990476D1C7F1C4745F6DBE0038C
:102C40000CD55B462146179A059800F09FF905447C
:102C500004E030205A46179990476D1C0099481E91
:102C600000900029F5DC08E0029802995A460078A5
:102C7000491C0291179990476D1CBAF10001AAF105
:102C8000010AF1DC65E1000009280100303132332E
:102C90003435363738396162636465660000000098
:102CA0003031323334353637383941424344454682
:102CB0000000000000F058F90544761C3078002828
:102CC0007FF4ECAD19B02846BDE8F08F620700D460
:102CD000062709F1070222F0070CFCE80223E1466F
:102CE00003F000485FEA080C02D00FF2702C0DE0F0
:102CF0005FEA045C02D50FF2682C07E05FEAC47C4F
:102D000002D00FF2602C01E0AFF2700C4FF0FF38F0
:102D100023F00043CDF850C065280CD006DC4528D0
:102D200009D046281DD047283DD13DE0662818D05F
:102D300067287ED138E00021112F01DB112000E04F
:102D4000781CCDE9000106A90EA8FFF7EDFCDDE92E
:102D50000F010E9A03910021009207F1010A0491DC
:102D60004DE04FF000400097CDE9011006A90EA8F4
:102D7000FFF7DAFCDDE90F0203920E9B11990022A6
:102D8000DDF80CA00093049211B9791C00EB010A44
:102D9000B7EB0A0004D4C0F1FF3007F1010A049038
:102DA000AAEB0700019044E0012F00DA012700217F
:102DB000112F01DD112000E03846CDE9000106A900
:102DC0000EA8FFF7B1FCDDE90F010E9A0391002177
:102DD00004910092BA4621070CD40399514500DAB8
:102DE0008A46BAF1010F05DD009AAAF10101515C92
:102DF000302908D0B84202DA10F1040F06DA0121B6
:102E0000CDE9011015E0AAF10101E9E7002805DC90
:102E1000049901440491AAEB000102E0411C5145D0
:102E200000DD8A460499401A401C01904FF0004092
:102E30000290200704D40198504501DBCDF80480AE
:102E400000208DF84F0002980DF14F07B0F1004FB0
:102E500025D02B200E9002984FF0020800280CDAA3
:102E6000404202902D200E9007E00A210298FDF7C3
:102E7000FDFA3031029007F8011DB8F10001A8F108
:102E80000108F2DC02980028EFD1791E0E98087034
:102E9000307800F0200040F0450007F8020D12A83D
:102EA000C01B00F107081498007800B1012000EB66
:102EB0000A01019801EBE07105984144401A401E57
:102EC0000590E00306D45B462146179A059800F06A
:102ED0005DF805441498007818B15A461799904740
:102EE0006D1CE00324D55B462146179A059800F037
:102EF0004DF805441CE00498002807DBDDE90301D8
:102F0000884203DD0098405C179901E01799302052
:102F10005A469047049805F10105401C0490019819
:102F2000401E019004D12E205A46179990476D1CDF
:102F3000BAF10001AAF1010ADDDC05E017F8010B86
:102F40005A46179990476D1CB8F10001A8F1010885
:102F5000F4DC5B462146179A0598ABE62D0000008D
:102F60002B000000200000002DE9F0410446002560
:102F70001E461746880404D405E039462020B04791
:102F80006D1C641EF9D52846BDE8F0812DE9F0419D
:102F9000044600251E469046C80301D5302700E0B0
:102FA0002027880404D505E041463846B0476D1C0B
:102FB000641EF9D52846BDE8F081000010B504462E
:102FC0006FF00400FEF730FFE11704EB5171C1F31D
:102FD000C701074A11701046007800EB4001C1EBB1
:102FE000C0104FF6FF7101EAC0000249088010BD11
:102FF000020000200400002070B504464FF4077062
:1030000094FBF0F0C6B24FF4077094FBF0F100FBB4
:10301000114085B205E04FF4077000F009F8701E0A
:10302000C6B2002EF7D115B1284600F001F870BDE8
:103030000146114A12884A434FF0E0235A610022A8
:103040009A611A46126942F001021A6100BF4FF0FC
:10305000E022106900F001021AB100F48032002A67
:10306000F5D04FF0E022126922F001024FF0E02388
:103070001A6100229A6170470400002070B504466E
:103080000D46E0B2FFF712FB204670BDFDF75CFB7A
:1030900001E0FEF751F8FCE7B8300008000000201E
:1030A0004C00000008270008043100084C000020F4
:1030B000640900001827000800000000000000005C
:1030C00000000000000001020304010203040607DF
:1030D00008090000000000000000000000000000DF
:1030E00000000000000000000000000000000000E0
:1030F00000000000000000000000000000000200CE
:0431000000000000CB
:04000005080001AD41
:00000001FF
